:040000006DEF01F0AF
:10001800D8CF0FF0E8CF10F0E0CF11F0FACF12F000
:10002800FBCF13F0E9CF14F0EACF15F0E1CF16F0CB
:10003800E2CF17F0D9CF18F0DACF19F0F3CF1AF0D2
:10004800F4CF1BF0F6CF1CF0F7CF1DF0F8CF1EF061
:10005800F5CF1FF09DA001D001D0BDD09EA001D04A
:1000680001D0B9D09E90010E00010001D427000EE6
:100078000001D523000E0001D623000E0001D7236E
:100088009EAC01D001D0A7D09E9C1BEC17F006C0F7
:10009800F0F005C0EFF004C0EEF003C0EDF0000191
:1000A800EDC007F00001EEC008F00001EFC009F054
:1000B8000001F0C00AF0071E081E091E0A1E072AC2
:1000C800000E082209220A223D50072400010001DF
:1000D800C86F3E5008200001C96F3F500920000139
:1000E800CA6F40500A200001CB6F3AEC17F00101AB
:1000F8004BC107F001014CC108F001014DC109F0E5
:1001080001014EC10AF0071E081E091E0A1E072A11
:10011800000E082209220A2200010001D4510724F6
:1001280001010101476F00010001D55108200101BB
:10013800486F00010001D65109200101496F0001F3
:100148000001D7510A2001014A6FD4C04BF1D5C034
:100158004CF1D6C04DF1D7C04EF101014FC107F0A7
:10016800010150C108F0010151C109F0010152C15A
:100178000AF0071E081E091E0A1E072A000E08227A
:1001880009220A2200010001D45107240B6E000144
:100198000001D55108200C6E00010001D65109203C
:1001A8000D6E00010001D7510A200E6EC90E0B5CBE
:1001B800000E0C58000E0D58000E0E58D8A001D095
:1001C80001D003D0B2EC16F000D0010E00010001FE
:1001D800D96F01D000D09EAA01D001D03DD09E9AFF
:1001E800F1EC16F0206E20500D0AD8A401D001D0F1
:1001F80007D0076E010E00010001D86F07502CD000
:100208000A0E00010001DA6101D001D020D00001FE
:100218000001DA51010D01013D0EF324D96E0101EF
:10022800010EF420DA6E20C0DFFF00010001DA2B96
:1002380000010001DA51010D01013D0EF324D96ED0
:100248000101010EF420DA6E000EDF6E05D007EC16
:1002580016F002D001D000D09EAE01D001D001D05E
:100268009E9E9EA801D001D001D09E989EA601D046
:1002780001D001D09E969EA401D001D001D09E94B9
:100288009EA201D001D002D09E9200D01FC0F5FFDF
:100298001EC0F8FF1DC0F7FF1CC0F6FF1BC0F4FF0F
:1002A8001AC0F3FF19C0DAFF18C0D9FF17C0E2FF60
:1002B80016C0E1FF15C0EAFF14C0E9FF13C0FBFF39
:1002C80012C0FAFF11C0E0FF10C0E8FF0FC0D8FF4E
:0602D8001000C0EF13F05E
:10080000226B6432223A00226B6932223A00226B58
:100810007032223A0022634F6E223A00226B642229
:100820003A00226B69223A0022646C223A00226468
:100830006D223A00226B70223A00226473223A0041
:10084000227073223A00226474223A00226C7422CD
:100850003A002263223A002265223A002272223AAA
:10086000002274223A000A0D002C007B007D00005B
:1008700000010001CF5101010101031914E1000140
:100880000001CE510101010102190DE10001000139
:10089000CD5101010101011906E100010001CC5116
:1008A000010101010019D8B4C5D300C1CCF001C1C8
:1008B000CDF002C1CEF003C1CFF0080E000100015F
:1008C000616F6B0E0001606F32EC15F0080E0001D5
:1008D0000001616F610E0001606F32EC15F00001E4
:1008E000000E00010001696F0001920E0001686FA7
:1008F00000C16AF001C16BF0000E000100016D6FD4
:100900000A0E00016C6FF6EC11F00001000E000100
:100910000001616F0001920E0001606F32EC15F072
:10092000080E00010001616F690E0001606F32EC7A
:1009300015F0080E00010001616F4C0E0001606FA0
:1009400032EC15F00001000E00010001696F00019A
:10095000920E0001686FCCC06AF0CDC06BF0000E43
:10096000000100016D6F0A0E00016C6FF6EC11F0D2
:100970000001000E00010001616F0001920E0001F4
:10098000606F32EC15F0080E00010001616F690E16
:100990000001606F32EC15F0080E00010001616F7C
:1009A000570E0001606F32EC15F00001000E0001DF
:1009B0000001886F0001920E0001876F04C189F069
:1009C00005C18AF006C18BF007C18CF0000E000152
:1009D00000018E6F0A0E00018D6FCCEC14F0000147
:1009E000000E00010001616F0001920E0001606FB6
:1009F00032EC15F0080E00010001616F690E000174
:100A0000606F32EC15F0080E00010001616F520EAC
:100A10000001606F32EC15F00001000E00010001D2
:100A2000886F0001920E0001876F0CC189F00DC123
:100A30008AF00EC18BF00FC18CF0000E0001000196
:100A40008E6F0A0E00018D6FCCEC14F00001000EC9
:100A500000010001616F0001920E0001606F32EC35
:100A600015F000010001DB51380AD8A4D1D2080EDC
:100A700000010001616F690E0001606F32EC15F03A
:100A8000080E00010001616F5C0E0001606F32EC26
:100A900015F00001000E00010001726F0001920EBE
:100AA0000001716F00010001DBC073F00001000163
:100AB000746B000E00010001766F0A0E0001756F65
:100AC000BBEC15F00001000E00010001616F000198
:100AD000920E0001606F32EC15F0080E000100016B
:100AE000616F690E0001606F32EC15F00001916FCB
:100AF000000E00010001DB6F00019151080E0001A2
:100B00000001616F340E0001606F32EC15F00001DE
:100B1000000E00010001886F0001920E0001876F36
:100B200010C189F011C18AF012C18BF013C18CF091
:100B3000000E000100018E6F0A0E00018D6FCCECDB
:100B400014F00001000E00010001616F0001920E1F
:100B50000001606F32EC15F0080E00010001616FBA
:100B6000690E0001606F32EC15F0080E0001000103
:100B7000616F220E0001606F32EC15F00001000E73
:100B800000010001886F0001920E0001876F14C1FF
:100B900089F015C18AF016C18BF017C18CF0000ED8
:100BA000000100018E6F0A0E00018D6FCCEC14F075
:100BB0000001000E00010001616F0001920E0001B2
:100BC000606F32EC15F0080E00010001616F690ED4
:100BD0000001606F32EC15F0080E00010001616F3A
:100BE0001C0E0001606F32EC15F00001000E0001D8
:100BF0000001886F0001920E0001876F18C189F013
:100C000019C18AF01AC18BF01BC18CF0000E0001D3
:100C100000018E6F0A0E00018D6FCCEC14F0000104
:100C2000000E00010001616F0001920E0001606F73
:100C300032EC15F0080E00010001616F690E000131
:100C4000606F32EC15F0080E00010001616F0E0EAE
:100C50000001606F32EC15F00001000E0001000190
:100C6000886F0001920E0001876F1CC189F01DC1C1
:100C70008AF01EC18BF01FC18CF0000E0001000134
:100C80008E6F0A0E00018D6FCCEC14F00001000E87
:100C900000010001616F0001920E0001606F32ECF3
:100CA00015F0080E00010001616F690E0001606F10
:100CB00032EC15F0080E00010001616F070E000113
:100CC000606F32EC15F00001000E00010001886F2A
:100CD0000001920E0001876F20C189F021C18AF0C6
:100CE00022C18BF023C18CF0000E000100018E6F39
:100CF0000A0E00018D6FCCEC14F00001000E000113
:100D00000001616F0001920E0001606F32EC15F07E
:100D1000080E00010001616F690E0001606F32EC86
:100D200015F0080E00010001616F000E0001606FF8
:100D300032EC15F00001000E00010001886F000187
:100D4000920E0001876F24C189F025C18AF026C167
:100D50008BF027C18CF0000E000100018E6F0A0E8F
:100D600000018D6FCCEC14F00001000E00010001B9
:100D7000616F0001920E0001606F32EC15F0080EF9
:100D800000010001616F690E0001606F32EC15F027
:100D9000080E00010001616F150E0001606F32EC5A
:100DA00015F00001000E00010001726F0001920EAB
:100DB0000001716F0101000128C173F00001000101
:100DC000746B000E00010001766F0A0E0001756F52
:100DD000BBEC15F00001000E00010001616F000185
:100DE000920E0001606F32EC15F0080E0001000158
:100DF000616F690E0001606F32EC15F0080E0001A2
:100E00000001616F3A0E0001606F32EC15F00001D5
:100E1000000E00010001886F0001920E0001876F33
:100E200029C189F02AC18AF02BC18BF02CC18CF02A
:100E3000000E000100018E6F0A0E00018D6FCCECD8
:100E400014F00001000E00010001616F0001920E1C
:100E50000001606F32EC15F0080E00010001616FB7
:100E6000690E0001606F32EC15F0080E0001000100
:100E7000616F400E0001606F32EC15F00001000E52
:100E800000010001886F0001920E0001876F2DC1E3
:100E900089F02EC18AF02FC18BF030C18CF0000E8A
:100EA000000100018E6F0A0E00018D6FCCEC14F072
:100EB0000001000E00010001616F0001920E0001AF
:100EC000606F32EC15F0080E00010001616F690ED1
:100ED0000001606F32EC15F0080E00010001616F37
:100EE0002E0E0001606F32EC15F00001000E0001C3
:100EF0000001886F0001920E0001876F31C189F0F7
:100F000032C18AF033C18BF034C18CF0000E000185
:100F100000018E6F0A0E00018D6FCCEC14F0000101
:100F2000000E00010001616F0001920E0001606F70
:100F300032EC15F0080E00010001616F690E00012E
:100F4000606F32EC15F0080E00010001616F280E91
:100F50000001606F32EC15F00001000E000100018D
:100F6000886F0001920E0001876F35C189F036C18C
:100F70008AF037C18BF038C18CF0000E00010001FF
:100F80008E6F0A0E00018D6FCCEC14F00001000E84
:100F900000010001616F0001920E0001606F32ECF0
:100FA00015F0080E00010001616F690E0001606F0D
:100FB00032EC15F0080E00010001616F460E0001D1
:100FC000606F32EC15F00001000E00010001886F27
:100FD0000001920E0001876F39C189F03AC18AF091
:100FE0003BC18BF03CC18CF0000E000100018E6F04
:100FF0000A0E00018D6FCCEC14F00001000E000110
:101000000001616F0001920E0001606F32EC15F07B
:10101000080E00010001616F6D0E0001606F32EC7F
:1010200015F0080E00010001616F660E0001606F8F
:1010300032EC15F0120000017A6F010E0001000180
:101040008A6F00017A5100017A6F000E00010001E1
:10105000D86F00017A513DC17CF0000100018A5136
:10106000010D01013D0EF324D96E0101010EF420A2
:10107000DA6EFF0E000100018A2500017A6F00017F
:1010800000017B6BFF0E7B230001850E00017A259A
:10109000E16E0001000E00017B21E26EDFCFE7FF71
:1010A000000100018A2B050E000100018A6501D0B4
:1010B0000FD0000100018A51010D01013D0EF32402
:1010C000D96E0101010EF420DA6EDF50D8A4C5D725
:1010D000FF0E000100018A2500017A6F0001000166
:1010E0007B6BFF0E7B230001850E00017A25D96EF4
:1010F0000001000E00017B21DA6E000EDF6E11D0C0
:1011000000010001DA51010D01013D0EF324D96EF9
:101110000101010EF420DA6E000EDF6E0001000105
:10112000DA0700010001DA67EBD7B8D10001000E41
:10113000000100016D6F0001850E00016C6FF5EC80
:101140000EF06FC0E4F06EC0E3F06DC0E2F06CC072
:10115000E1F0DAD10001000E000100016D6F000125
:10116000850E00016C6FF5EC0EF06FC0BBF06EC029
:10117000BAF06DC0B9F06CC0B8F0C6D10001000E75
:10118000000100016D6F0001850E00016C6FF5EC30
:101190000EF06FC0B3F06EC0B2F06DC0B1F06CC0B5
:1011A000B0F0B2D10001000E000100016D6F00012E
:1011B000850E00016C6FF5EC0EF06FC0E8F06EC0AC
:1011C000E7F06DC0E6F06CC0E5F09ED10001000EC6
:1011D000000100016D6F0001850E00016C6FF5ECE0
:1011E0000EF06FC0BFF06EC0BEF06DC0BDF06CC041
:1011F000BCF08AD10001000E000100016D6F0001FA
:10120000850E00016C6FF5EC0EF06FC0B7F06EC08C
:10121000B6F06DC0B5F06CC0B4F076D1EDC03DF065
:10122000EEC03EF0EFC03FF0F0C040F06DD19D90B9
:101230000001000E00010001676F0001850E000132
:10124000666FE4EC10F0000100016651000100013E
:10125000F26FF2C0F1F0000E00010001686F000EA5
:101260000001696F000E00016A6F000E00016B6FD4
:1012700000017A6F000E000100016C6F00017A51CD
:1012800023EC13F009D10001000E00010001676F8B
:101290000001850E0001666FE4EC10F00001000112
:1012A000665100010001DC6F2FD10001000E00012A
:1012B00000016D6F0001850E00016C6FF5EC0EF002
:1012C0006FC0D3F06EC0D2F06DC0D1F06CC0D0F062
:1012D0001BD10001000E000100016D6F0001850EA1
:1012E00000016C6FF5EC0EF06FC0C3F06EC0C2F081
:1012F0006DC0C1F06CC0C0F007D19D900001000E20
:10130000000100016D6F0001850E00016C6FF5ECAE
:101310000EF06CC025F06DC026F0F2C0F1F00001B7
:101320007A6F000E00010001F26F00017A51000196
:101330007A6F010E286E00017A5199EC16F0D0C038
:1013400068F0D1C069F0D2C06AF0D3C06BF0C0C001
:101350006CF023EC13F0A0D00001000E000100019E
:101360006D6F0001850E00016C6FF5EC0EF06FC023
:10137000ECF06EC0EBF06DC0EAF06CC0E9F0C4D0E8
:101380000001000E000100016D6F0001850E0001DB
:101390006C6FF5EC0EF06FC03CF06EC03BF06DC0B2
:1013A0003AF06CC039F0B0D00001000E000100012D
:1013B0006D6F0001850E00016C6FF5EC0EF06FC0D3
:1013C000C7F06EC0C6F06DC0C5F06CC0C4F09CD054
:1013D0000001000E00010001676F0001850E000191
:1013E000666FE4EC10F0000100016651000100019D
:1013F000DB6F8AD09D9000017A6F000E0001000122
:10140000F26F00017A510001000E000100016D6FC2
:101410000001850E00016C6FF5EC0EF06FC084F0DA
:101420006EC083F06DC082F06CC081F0000E0001D0
:1014300000017D6F000E00017E6F000E00017F6FC6
:10144000000E0001806F0001000184AF02D0010E88
:1014500001D0020E000100017D6F000E00017E6FC1
:10146000000E00017F6F000E0001806F81C060F0F0
:1014700082C061F083C062F084C063F08FEC15F02D
:1014800063C06BF062C06AF061C069F060C068F070
:101490007DC06CF023EC13F09D8036D0000100017C
:1014A0007C51310AD8B458D7030AD8B469D7010A95
:1014B000D8B47AD7520AD8B49DD7020AD8B4B7D6CE
:1014C000070AD8B45BD6010AD8B494D60C0AD8B4AB
:1014D00041D6040AD8B4FDD6030AD8B4E6D61E0A0B
:1014E000D8B424D6010AD8B45DD6030AD8B470D7CC
:1014F000010AD8B402D7050AD8B4C5D6010AD8B4AF
:1015000065D60D0AD8B48AD61200100E000100016B
:101510009A6F270E00019B6F000E00019C6F000E5A
:1015200000019D6F400E00010001A66F0D0E00012D
:10153000A76F030E0001A86F000E0001A96F8EC0F7
:10154000D9FF8FC0DAFFDECF92F0DECF93F0DECF8F
:1015500094F0DECF95F00001921F931F941F951F0A
:10156000922B000E932394239523000100017A51BE
:101570000001922500010001A26F000100017B51D2
:10158000000193210001A36F000100017C510001C3
:1015900094210001A46F000100017D5100019521FB
:1015A0000001A56F7AC060F07BC061F07CC062F082
:1015B0007DC063F08FEC15F000010001A951800A95
:1015C0000001926F00010001605100010001A65D61
:1015D00000010001615100010001A7590001000153
:1015E000625100010001A859000100016351800A05
:1015F00000019259D8B00FD090C0D9FF91C0DAFF46
:10160000000EDE6E000EDE6E000EDE6E000EDD6E73
:10161000DD52DD5248D090C0D9FF91C0DAFFDECF55
:1016200092F0DECF93F0DECF94F0DECF95F07AC06B
:1016300060F07BC061F07CC062F07DC063F07EC072
:1016400064F07FC065F080C066F081C067F072EC26
:1016500013F0000192510001000160250001966F16
:10166000000193510001000161210001976F000109
:1016700094510001000162210001986F0001955111
:101680000001000163210001996F90C0D9FF91C052
:10169000DAFF96C0DEFF97C0DEFF98C0DEFF99C07C
:1016A000DDFFD906D9067AC060F07BC061F07CC04E
:1016B00062F07DC063F082C064F083C065F084C0D6
:1016C00066F085C067F072EC13F060C092F061C004
:1016D00093F062C094F063C095F090C0D9FF91C0C0
:1016E000DAFF0001DECF60F00001DECF61F0000123
:1016F000DECF62F00001DECF63F086C064F087C009
:1017000065F088C066F089C067F072EC13F00001E4
:1017100000016051000192250001966F0001000157
:101720006151000193210001976F00010001625196
:10173000000194210001986F000100016351000134
:1017400095210001996F8AC064F08BC065F08CC050
:1017500066F08DC067F0A2C060F0A3C061F0A4C0C5
:1017600062F0A5C063F072EC13F063C06FF062C06A
:101770006EF061C06DF060C06CF07EC070F07FC034
:1017800071F080C072F081C073F071EC11F0000153
:1017900000016C5100019625000100019E6F0001BF
:1017A00000016D510001972100019F6F00010001B0
:1017B0006E51000198210001A06F000100016F51DE
:1017C000000199210001A16F8EC0D9FF8FC0DAFFFF
:1017D00000017AC0DEFF00017BC0DEFF00017CC09B
:1017E000DEFF00017DC0DEFF9EC07AF09FC07BF06F
:1017F000A0C07CF0A1C07DF012009268936894684C
:101800009568959095929494949C0001AE6FFF0E0C
:1018100000010001606F0001AE517FEC16F0CD8039
:10182000CD92CD96CD9ACD989D80F28CF194D08EAC
:101830009F909E90CBEC16F046EC16F064EC16F000
:101840000EEC17F09D9C9D8AD08EF28CF28E0001DA
:10185000AE6F010E00010001DC6F0001AE5100010E
:101860000001D951D8B44CD0000E00010001D96F4D
:10187000C8C000F1C9C001F1CAC002F1CBC003F178
:1018800047C104F148C105F149C106F14AC107F158
:10189000E1C008F1E2C009F1E3C00AF1E4C00BF1D4
:1018A000B8C00CF1B9C00DF1BAC00EF1BBC00FF158
:1018B000B0C010F1B1C011F1B2C012F1B3C013F158
:1018C0000001000E01010101156F0001DD0E010193
:1018D000146F0001000E01010101176F0001AF0E2E
:1018E0000101166F13EC0DF003C124F002C123F0C7
:1018F00001C122F000C121F0AFC06DF050EC10F03A
:1019000000010001DC05D8A47CD0D4C000F1D5C012
:1019100001F1D6C002F1D7C003F1C8C004F1C9C0BB
:1019200005F1CAC006F1CBC007F1DDC008F1DEC089
:1019300009F1DFC00AF1E0C00BF121C00CF122C0B7
:101940000DF123C00EF124C00FF1E1C010F1E2C08F
:1019500011F1E3C012F1E4C013F1B8C014F1B9C041
:1019600015F1BAC016F1BBC017F1B0C018F1B1C083
:1019700019F1B2C01AF1B3C01BF1E5C01CF1E6C009
:101980001DF1E7C01EF1E8C01FF1BCC020F1BDC0D1
:1019900021F1BEC022F1BFC023F1B4C024F1B5C013
:1019A00025F1B6C026F1B7C027F1F1C028F1C0C0BB
:1019B00029F1C1C02AF1C2C02BF1C3C02CF1D0C0A3
:1019C0002DF1D1C02EF1D2C02FF1D3C030F1C4C05F
:1019D00031F1C5C032F1C6C033F1C7C034F1E9C03E
:1019E00035F1EAC036F1EBC037F1ECC038F139C05F
:1019F00039F13AC03AF13BC03BF13CC03CF138EC24
:101A000004F000010001D805D8A429D70001AE6F69
:101A1000000E00010001D86F0001AE511BEC08F070
:101A200062EC15F01CD700C160F001C161F002C189
:101A300062F003C163F0E80E00010001646F030E61
:101A40000001656F000E0001666F000E0001676FF8
:101A500072EC13F063C003F162C002F161C001F1E6
:101A600060C000F100C17AF001C17BF002C17CF0DE
:101A700003C17DF004C17EF005C17FF006C180F096
:101A800007C181F008C182F009C183F00AC184F066
:101A90000BC185F00CC186F00DC187F00EC188F036
:101AA0000FC189F010C18AF011C18BF012C18CF006
:101AB00013C18DF0000E000100018F6F310E000187
:101AC0008E6F000E00010001916F290E0001906FD2
:101AD00085EC0AF07DC0ADF07CC0ACF07BC0ABF013
:101AE0007AC0AAF0AAC07AF0ABC07BF0ACC07CF0A0
:101AF000ADC07DF004C17EF005C17FF006C180F06D
:101B000007C181F0E5C082F0E6C083F0E7C084F051
:101B1000E8C085F0BCC086F0BDC087F0BEC088F0CC
:101B2000BFC089F0B4C08AF0B5C08BF0B6C08CF0ED
:101B3000B7C08DF0000E000100018F6F350E00015F
:101B40008E6F000E00010001916F2D0E0001906F4D
:101B500085EC0AF07DC0ADF07CC0ACF07BC0ABF092
:101B60007AC0AAF0AAC060F0ABC061F0ACC062F06D
:101B7000ADC063F0400E00010001646F420E000131
:101B8000656F0F0E0001666F000E0001676F1FEC9E
:101B90000EF063C0ADF062C0ACF061C0ABF060C0ED
:101BA000AAF000010001AD51800A800F0BE1000E88
:101BB0000001AC5D07E1000E0001AB5D03E1010E29
:101BC0000001AA5DD8A006D016C1D9FF17C1DAFF5F
:101BD000010E0FD000010001ADAF06D016C1D9FF34
:101BE00017C1DAFF020E05D016C1D9FF17C1DAFFFF
:101BF000000EDF6EAAC060F0ABC061F0ACC062F056
:101C0000ADC063F08FEC15F014C1D9FF15C1DAFF38
:101C1000000160C0DEFF000161C0DEFF000162C0A4
:101C2000DEFF000163C0DDFFD906D906AAC000F1BE
:101C3000ABC001F1ACC002F1ADC003F11200000174
:101C4000686F000E000100016A6F00016851000119
:101C5000000167AF18D000010001671F0001661F77
:101C60000001651F0001646D000E00016523000185
:101C70006623000167230001686F010E0001000167
:101C80006A6F000168510001000163AF14D00001C8
:101C90000001631F0001621F0001611F0001606DF0
:101CA000000E000161230001622300016323010E85
:101CB000000100016A1B000E000100016B6F000EA5
:101CC00000016C6F000E00016D6F000E00016E6F61
:101CD000000100016751641165116611D8B467D025
:101CE0000001686F010E00010001696F0001685179
:101CF0000DD00001D8900001643700016537000164
:101D000066370001673700010001692B00010001FF
:101D100067AFEFD70001D89000016B3700016C3737
:101D200000016D3700016E370001000164510001B0
:101D30000001605D00010001655100010001615971
:101D4000000100016651000100016259000100011B
:101D50006751000100016359D8A01BD000010001A8
:101D6000645100010001605F000100016551000144
:101D70000001615B00010001665100010001625B2E
:101D800000010001675100010001635B00010001D7
:101D90006B810001D89000016733000166330001B8
:101DA00065330001643300010001692FB3D70001DE
:101DB00000016A51D8B410D0000100016E1F00016B
:101DC0006D1F00016C1F00016B6D000E00016C2384
:101DD00000016D2300016E236BC060F06CC061F0E8
:101DE0006DC062F06EC063F012006CC0D9FF6DC0B0
:101DF000DAFFDF5000010001796F000100016C4B38
:101E00006D2B000100017951200AD8B4EED70001F2
:101E100000017951090AD8B4E8D7000E0001000189
:101E2000756F000E0001766F000E0001776F000ED7
:101E30000001786F0001706F000E00010001746FE7
:101E4000000170510001000179512D0AD8A404D07D
:101E500000010001742B3DD00001000179512B0AD3
:101E6000D8A443D036D075C060F076C061F077C09A
:101E700062F078C063F00A0E00010001646F000E8A
:101E80000001656F000E0001666F000E0001676FB4
:101E900072EC13F079C070F0D00E000170270001D1
:101EA000705100010001602500010001756F000EF6
:101EB0000001000161210001766F000E00010001A8
:101EC00062210001776F000E000100016321000113
:101ED000786F6CC0D9FF6DC0DAFFDF5000010001E0
:101EE000796F000100016C4B6D2B79C060F027EC1D
:101EF00016F0D8B0B8D7000100017451D8B41FD083
:101F0000000175C070F0000176C071F0000177C06B
:101F100072F0000178C073F00001701F711F721F12
:101F2000731F702B000E71237223732373C06FF025
:101F300072C06EF071C06DF070C06CF008D075C0EA
:101F40006CF076C06DF077C06EF078C06FF0120064
:101F50007CC082F07DC083F07EC084F07FC085F0BD
:101F600082C06CF083C06DF084C06EF085C06FF0ED
:101F70000001000180C070F00001000181C071F01B
:101F80000001000E000171BFFF0E0001726F000121
:101F9000736F71EC11F06FC085F06EC084F06DC08E
:101FA00083F06CC082F0000100017A4B7B2B0001B2
:101FB00000018551821183118411D8A4D1D77AC030
:101FC000D9FF7BC0DAFF000EDF6E000100017A0747
:101FD000D8A07B077CC060F07DC061F07EC062F05D
:101FE0007FC063F00001000180C064F000010001C7
:101FF00081C065F00001000E000165BFFF0E000109
:10200000666F0001676F63EC12F000010001605120
:1020100000010001866F7CC06CF07DC06DF07EC059
:102020006EF07FC06FF00001000180C070F0000111
:10203000000181C071F00001000E000171BFFF0EB0
:102040000001726F0001736F71EC11F06FC07FF0CF
:102050006EC07EF06DC07DF06CC07CF0090E00019A
:102060000001866504D0070E000100018627300EAE
:102070000001000186277AC0D9FF7BC0DAFF00018A
:1020800086C0DFFF000100017A07D8A07B070001AE
:1020900000017F517C117D117E11D8B412009AD7B6
:1020A00000010001DD5100010001E95D00010001B6
:1020B000DE5100010001EA5900010001DF51000179
:1020C0000001EB5900010001E05100010001EC5951
:1020D000D8B032D0010101015307000E0101545B59
:1020E0000101555B0101565B01010101565153117C
:1020F00054115511D8A428D0000E00010001686FBA
:10210000000E0001696F000E00016A6F000E0001F1
:102110006B6F00016E6F000E000100016C6F00011B
:102120006E5123EC13F000016E6F000E00010001F0
:10213000F26F00016E5108D039C053F13AC054F12A
:102140003BC055F13CC056F12850D8B42BD0265096
:10215000800A800F010ED8B4255CD8B020D0000EC4
:1021600000010001686F000E0001696F000E0001A0
:102170006A6F000E00016B6F00016E6F000E0001B0
:1021800000016C6F00016E5123EC13F0F1C0F2F00E
:1021900000016E6F000E286E00016E5103D02506FF
:1021A000D8A0260600010001F205D8A40CD0DDC09D
:1021B00068F0DEC069F0DFC06AF0E0C06BF06DC0AF
:1021C0006CF023EC13F0120004D000010001664B08
:1021D000672B66C0D9FF67C0DAFFDF50200AD8B48A
:1021E000F4D766C0D9FF67C0DAFFDF50090AD8B458
:1021F000ECD7000E000100016D6F000E00016C6F46
:102200000001686F000E000100016B6F0001685152
:102210002D0E66C0D9FF67C0DAFFDF6204D000016F
:1022200000016B2B34D02B0E66C0D9FF67C0DAFFDC
:10223000DF6231D02CD06CC060F06DC061F0000E58
:1022400000010001636F0A0E0001626F01EC15F0DE
:1022500066C0D9FF67C0DAFFDF500001686F000178
:1022600068510001000160250001696F0001000153
:102270000001000E61216A6FD00E00016925000186
:1022800000016C6FFF0E00016A2100016D6F0001FB
:102290000001664B672B66C0D9FF67C0DAFFDF50CD
:1022A00000010001606F27EC16F0D8B0C4D7000120
:1022B00000016B51D8B410D000016CC068F000016F
:1022C0006DC069F00001681F691F684B692B68C009
:1022D00066F069C067F004D06CC066F06DC067F04E
:1022E0001200000E00010001756F000E0001766FF4
:1022F000000E0001776F000E0001786F00010001F1
:102300007351701171117211D8B467D00001746FDC
:10231000010E00010001796F000174510DD0000120
:10232000D890000170370001713700017237000149
:10233000733700010001792B0001000173AFEFD763
:102340000001D8900001753700017637000177371A
:1023500000017837000100017051000100016C5D3F
:10236000000100017151000100016D5900010001DF
:102370007251000100016E5900010001735100010A
:1023800000016F59D8A01BD000010001705100015D
:1023900000016C5F000100017151000100016D5BE3
:1023A000000100017251000100016E5B000100019B
:1023B0007351000100016F5B000100017581000194
:1023C000D8900001733300017233000171330001B2
:1023D000703300010001792FB3D775C06CF076C05F
:1023E0006DF077C06EF078C06FF012006AC06EF0CA
:1023F0006BC06FF06EC060F06FC061F06CC062F0D7
:102400006DC063F0CEEC12F0000160C06EF0000110
:1024100061C06FF000010001684B692B00010001F1
:102420006F516E11D8A4E6D768C0D9FF69C0DAFF32
:10243000000EDF6E000100016807D8A069076AC0BE
:1024400060F06BC061F06CC062F06DC063F007ECCF
:1024500014F000010001605100010001706F6AC0BA
:1024600060F06BC061F06CC062F06DC063F0CEECE8
:1024700012F0000160C06AF0000161C06BF0090E4B
:1024800000010001706504D0070E000100017027F3
:10249000300E00010001702768C0D9FF69C0DAFF63
:1024A000000170C0DFFF000100016807D8A06907C4
:1024B000000100016B516A11D8A4C1D700010001CD
:1024C000684B692B1200000100016751641165110E
:1024D0006611D8B45AD00001686F010E00010001E6
:1024E000696F000168510DD00001D8900001643778
:1024F0000001653700016637000167370001000100
:10250000692B0001000167AFEFD7000100016451A2
:1025100000010001605D0001000165510001000142
:10252000615900010001665100010001625900017A
:1025300000016751000100016359D8A018D00001C3
:102540000001645100010001605F0001000165515C
:1025500000010001615B0001000166510001000102
:10256000625B00010001675100010001635B000133
:10257000D890000167330001663300016533000124
:10258000643300010001692FC0D760C060F061C0F2
:1025900061F062C062F063C063F01200000E0001DF
:1025A0000001676F000E0001666F000100016351BA
:1025B0006211D8B443D00001646F010E0001000124
:1025C000656F0001645109D0000100010001D8903D
:1025D0006237633700010001652B0001000163AF22
:1025E000F3D7000100010001D8906637673700017A
:1025F0000001625100010001605D000100016351B2
:10260000000100016159D8A00FD000010001625102
:1026100000010001605F0001000163510001000141
:10262000615B000100016681000100010001D8909A
:102630006333623300010001652FD3D766C060F0B9
:1026400067C061F0120000010001C45100010001E7
:10265000682700010001C551000100016923000144
:102660000001C651000100016A2300010001C751A9
:10267000000100016B23000E00010001685D040EE3
:1026800000016959000E00016A59000E00010001A5
:102690006B59D8B007D068C066F069C067F04BECE2
:1026A00017F012D0030E00010001676FFF0E00014A
:1026B000666F4BEC17F008D0838004D08390838240
:1026C00010D0839083920DD0000100016C51000A5C
:1026D000D8B4F7D7010AD8B4EFD7030AD8B4EED7E5
:1026E000F0D71200000E00010001686F000E00011B
:1026F000696F000E00016A6F000E00016B6F000130
:10270000000160A118D00001000164510001000126
:1027100068270001000165510001000169230001E3
:1027200000016651000100016A23000100016751A8
:10273000000100016B230001D89000016437000103
:10274000653700016637000167370001D890000146
:102750006333000162330001613300016033000123
:1027600000016351601161116211D8A4C8D768C01B
:1027700060F069C061F06AC062F06BC063F0120083
:1027800001EE3DF0160EEE6AE806FDE100EEB0F057
:10279000310EEE6AE806FDE100EE21F0180EEE6A59
:1027A000E806FDE1B60EF66E2E0EF76E000EF86E20
:1027B00001EE53F010EE04F00900F5CFEEFFE55006
:1027C000E150FAE1620EF66E2E0EF76E000EF86E14
:1027D00000EEE1F010EE12F00900F5CFEEFFE5504B
:1027E000E150FAE1AE0EF66E2E0EF76E000EF86EA8
:1027F00000EE39F010EE08F00900F5CFEEFFE550DD
:10280000E150FAE1000EF86E0001FDEF0BF000015F
:10281000000163516211D8B43AD00001646F010E17
:1028200000010001656F0001645109D00001000141
:102830000001D8906237633700010001652B000169
:10284000000163AFF3D700010001625100010001F4
:10285000605D000100016351000100016159D8A0D1
:102860000CD000010001625100010001605F000115
:102870000001635100010001615B000100010001E2
:10288000D8906333623300010001652FDCD760C04C
:1028900060F061C061F01200000EAC6E000EAB6E15
:1028A0000001000160B1AC880001000160A302D00A
:1028B000AC8CAB8C0001000160B5AC8E0001000156
:1028C00060A702D0AB8801D0AB8A0001000160B9DB
:1028D000AC849E980001000160BBAB860001000142
:1028E00060AD02D09D8A01D09D9A9E9A00010001A0
:1028F00060AF02D09D8801D09D9861C0AFFF0001FC
:1029000000016251B06EAC8AAB8E949C948EACB8D0
:10291000ACBE01D0948C1200000EC26E000EC06ED0
:1029200000010001D89061313C0BC26E61C063F0C0
:102930000001633BF00E6317300E000163170001C6
:10294000000162510F0B00016311C16E60C063F0A2
:102950000001D89063370001D8906337380E00012A
:10296000631760C064F00001643B0F0E6417070E2C
:1029700000016417000100016051800B0001641127
:1029800000016311C06E0001000161AF03D09E9C85
:102990009D8CF28CC280120087C08FF088C090F0AE
:1029A000000100018CAF1AD087C0D9FF88C0DAFFC0
:1029B0002D0EDF6E00010001874B882B0001000106
:1029C0008C1F00018B1F00018A1F0001896D000E02
:1029D00000018A2300018B2300018C2387C07AF039
:1029E00088C07BF089C07CF08AC07DF08BC07EF00F
:1029F0008CC07FF08DC080F08EC081F0A8EC0FF00D
:102A00001200000100016051000100016203F3CFD8
:102A100064F0F4CF65F00001000160510001000195
:102A20006303F3CFF4FFF36AF3500001000164275E
:102A3000F450000100016523000100016151000113
:102A400000016203F3CFF4FFF36AF35000010001C9
:102A50006427F45000010001652364C060F065C084
:102A600061F0120019D0ACA2FED700010001605144
:102A7000F66EE96E070EEA6E000100016151EA642C
:102A800003D0EA6EEF5003D0F76E0800F550AD6E3C
:102A900000010001604B612B000100016051F66EE6
:102AA000E96E070EEA6E000100016151EA6403D08D
:102AB000EA6EEF5003D0F76E0800F5500009D8B465
:102AC0001200D1D7000E00010001626F000E00015C
:102AD000616F000100016251800A800F0A0ED8B4B4
:102AE000615DD8B013D001013D0E000100016125E8
:102AF000D96E0101010E000100016221DA6E000EA3
:102B0000DF6E00010001614B622BE3D70001606FB3
:102B1000000E00010001DA6F000160511200000197
:102B2000000163AF1FD0000160C064F0000161C00C
:102B300065F0000162C066F0000163C067F000014B
:102B4000641F651F661F671F642B000E65236623C5
:102B5000672367C063F066C062F065C061F064C05F
:102B600060F008D060C060F061C061F062C062F0E7
:102B700063C063F0120071C077F072C078F000019A
:102B8000000174AF11D071C0D9FF72C0DAFF2D0EF1
:102B9000DF6E00010001714B722B00010001736DAB
:102BA0000001741FD8B0742B71C068F072C069F056
:102BB00073C06AF074C06BF075C06CF076C06DF0D5
:102BC000F6EC11F01200000160C062F0000161C07B
:102BD00063F0060ED890000162376337E82EFAD70B
:102BE00062C064F063C065F065C0BEFF64C062F09F
:102BF0000001D89062330001D8906233300E00019A
:102C00006217BD50CF0B00016211BD6E1200000EA5
:102C1000036E000E026E0350800A800F0A0ED8B4B5
:102C2000025CD8B00DD001013D0E0224D96E010125
:102C3000010E0320DA6E000EDF6E024A032AEBD784
:102C4000016E000E00010001DA6F01501200000158
:102C5000616F000E00010001626F000161513A0EC8
:102C60000001000160610DD02F0E000100016065C0
:102C700008D00001616F010E00010001626F0001C8
:102C8000615162C061F0000161311200000E00016B
:102C90000001616F000E0001606FE3EC15F00001B0
:102CA000666F7E0E00010001606F00016651E0EC6E
:102CB00016F00001666FFF0E00010001606F000159
:102CC000665143EC17F012000001656FF30E00012E
:102CD0000001606F000165510001666FFC0E00018C
:102CE0000001616F000166510001676FF80E00017D
:102CF0000001626F000167518CEC14F012000001BA
:102D0000000160517E0BCD6E0001000160AD02D06C
:102D1000CD8E01D0CD9E000ECF6E000ECE6E9E9059
:102D20000001000160AF02D09D8001D09D90CD8058
:102D30001200000E296E000E2A6E000E2B6E000E81
:102D40002C6E000E2D6E000E2E6E000E2F6E000EDD
:102D5000306ED4C04FF1D5C050F1D6C051F1D7C0BC
:102D600052F11200000E296E000E2A6E000E2B6E1C
:102D7000000E2C6E000E2D6E000E2E6E000E2F6EAD
:102D8000000E306ED4C04FF1D5C050F1D6C051F115
:102D9000D7C052F11200949C948E0001636F7C0E98
:102DA00000010001606F00016351000E000100018D
:102DB000626F100E0001616F4CEC14F0B8861200C7
:102DC000000100016051FB0BCA6E000ECC6E9E929A
:102DD0000001000160AF02D09D8201D09D92CA84A3
:102DE0001200F20E2716ABAC03D02790ABB02780B1
:102DF000ABB42784ABB22786AECF01F001501200EE
:102E0000C2CF61F0C30E0001611700010001D8902C
:102E100060313C0B00016111C26E12000001626F53
:102E2000AF0E00010001606F0001625100EC17F06D
:102E30005DEC17F0120052EC17F001C003F002C075
:102E400004F0000E04BEFF0E056E066E1200C2CF27
:102E500002F0C30E0216D89001303C0B0210C26E75
:102E60001200E8030000010000000003000000025F
:102E700000000101036EAF0E016E035027EC17F046
:102E80005FEC17F012000C0EBD129494CA9460C04F
:102E9000CBFFCA84120066C060F067C061F0E3EC4B
:102EA00015F01200C450026EC350016E12000100F2
:102EB00000000002000001000000C2821200C28275
:022EC0001200FE
:020000040020DA
:08000000FFFFFFFFFFFFFFFF00
:020000040030CA
:0E000000010C191EFF8381FF0FC00FE00F409F
:00000001FF
